:1000000009C0BAC015C015C013C012C011C010C0BD
:100010000FC00EC011241FBECFE9CDBF10E0A0E677
:10002000B0E001C01D92A536B107E1F7EDD02DC1BA
:10003000E7CF1F920F920FB60F9211242F933F9389
:100040004F935F936F937F938F939F93AF93BF93E0
:10005000EF93FF93809161008F5F80936100909197
:100060006000933041F1943030F4913069F0923077
:1000700009F054C014C0923181F1933109F43FC0AA
:10008000913109F04BC023C0B3991FC0809161002A
:100090008930E9F481E18093600095BF18C09091A8
:1000A000610080916400981791F4809160008F5FE7
:1000B0008093600022C09091610080916200981747
:1000C00031F481E080936000C2981092610040E0BA
:1000D00068EB7BE0E0E7F7E134C0B399F8CF8091BB
:1000E00060008F5F80936000809161008093640066
:1000F0006091640080E090E0B6D0C29AE6CFB39BF6
:10010000E6CF81E08093600080916100809362007F
:100110006091620081E090E0A6D0D6CF81E080932C
:100120006000D5CFC09A80916000807F11F0CF0130
:1001300001C0CB010197F1F7C098CB010197F1F70E
:100140004F5F80916000242F30E090E08F709070BE
:10015000281739073CF3FF91EF91BF91AF919F9121
:100160008F917F916F915F914F913F912F910F9060
:100170000FBE0F901F9018951F920F920FB60F92FF
:1001800011242F933F934F935F936F937F938F939C
:100190009F93AF93BF93EF93FF9388EB9BE00197FF
:1001A000F1F7809160008130B1F08131E1F486B3E4
:1001B00090E09695879581708093630060916300CD
:1001C00082E090E050D080916300882311F482E0B7
:1001D00001C083E085BF809160008F5F80936000E5
:1001E00012BE10926100FF91EF91BF91AF919F916C
:1001F0008F917F916F915F914F913F912F910F90D0
:100200000FBE0F901F90189580E090E024D080934F
:10021000640081E090E01FD08093620082E090E073
:100220001AD08093630085E087BB88E188BB80910A
:100230006300882311F482E001C083E085BF81E080
:10024000809360008FBD85E083BF80E48BBF82E038
:1002500089BF7894FFCFE199FECF1FBA8EBBE09A99
:1002600099278DB30895262FE199FECF1FBA8EBB33
:10027000E09A81500DB2021639F01CBA2DBB0FB6B0
:0E028000F894E29AE19A0FBE0895F894FFCF29
:00000001FF
